:020000040000FA
:0600000076EF1AF0120079
:0A0006000300443600006000000013
:100010007700000042360000F900000002000000F6
:0C0020004C35000000010000F60000005C
:04002C0066D8A3D817
:1000300096D8A1D8C2D89FD8D4D89DD8DED8F1D828
:100040000A0EE66EA8EC16F0E55212004CDA080E25
:10005000E66EA8EC16F0E55296C2E6FF97C2E6FF00
:1000600082D9E552E55282DA02EF03F0DFDF59EC84
:1000700005F026EF00F0E66AD2EC14F0E5520F012D
:10008000106F090E166E010E176E186A16C0E6FF85
:1000900017C0E6FF18C0E6FF1051E66EE66AFAECFC
:1000A00017F0196E050EE15E1950F3CF14F0F4CF7E
:1000B00015F01450151020E0650E146E2C0E156E00
:1000C000166A14C0E6FF15C0E6FF16C0E6FF110E63
:1000D000E66E0F0EE66ED3EC17F0176E050EE15EBE
:1000E0001750010EE66E110EE66E0F0EE66E14EC62
:1000F00015F0E552E552E5521200D9CFE6FFE1CF07
:10010000D9FF0A0EE126D9CFE9FFDACFEAFF410E87
:10011000EE6E540EEE6E2B0EEE6E430EEE6E570E1E
:10012000EE6E4A0EEE6E410EEE6E500EEE6E3D0E0F
:10013000EE6EEE6A010EE66ED9CFE6FFDACFE6FF8D
:1001400014EC15F0E552E552E5520A0EE15C02E2CC
:10015000E16AE552E16EE552E7CFD9FF1200010EE8
:10016000E66E2D0EE66E010EE66E14EC15F0E5520D
:10017000E552E5521200D9CFE6FFE1CFD9FF020EDA
:10018000E126D9CFE9FFDACFEAFF220EEE6EEE6A62
:10019000010EE66ED9CFE6FFDACFE6FF14EC15F0DC
:1001A000E552E552E552020EE15C02E2E16AE552F7
:1001B000E16EE552E7CFD9FF1200D9CFE6FFE1CFDC
:1001C000D9FFE6522C0EDF6E010EE66EDFCFE6FFA2
:1001D000B1EC14F0E552E552E552E552E7CFD9FF14
:1001E0001200010EE66E340EE66E010EE66E14ECA1
:1001F00015F0E552E552E5521200D9CFE6FFE1CF06
:10020000D9FFE6520D0EDF6E010EE66EDFCFE6FF80
:10021000B1EC14F0E552E552E552E552E7CFD9FFD3
:100220001200D9CFE6FFE1CFD9FFE6520A0EDF6E0A
:10023000010EE66EDFCFE6FFB1EC14F0E552E552B9
:10024000E552E552E7CFD9FF1200D9CFE6FFE1CF63
:10025000D9FF0D0EE126D9CFE9FFDACFEAFF410E33
:10026000EE6E540EEE6E2B0EEE6E430EEE6E490EDB
:10027000EE6E500EEE6E530EEE6E540EEE6E410E9E
:10028000EE6E520EEE6E540EEE6E3D0EEE6EEE6A99
:10029000010EE66ED9CFE6FFDACFE6FF14EC15F0DB
:1002A000E552E552E5520D0EE15C02E2E16AE552EB
:1002B000E16EE552E7CFD9FF1200D9CFE6FFE1CFDB
:1002C000D9FF040EE126D9CFE9FFDACFEAFF540EB9
:1002D000EE6E430EEE6E500EEE6EEE6A010EE66EA0
:1002E000D9CFE6FFDACFE6FF14EC15F0E552E55280
:1002F000E552040EE15C02E2E16AE552E16EE5528C
:10030000E7CFD9FF1200010EE66E400EE66E010E39
:10031000E66E14EC15F0E552E552E5521200D9CF25
:10032000E6FFE1CFD9FF030EE126D9CFE9FFDACF0F
:10033000EAFF380EEE6E300EEE6EEE6A010EE66EDD
:10034000D9CFE6FFDACFE6FF14EC15F0E552E5521F
:10035000E552030EE15C02E2E16AE552E16EE5522C
:10036000E7CFD9FF1200D9CFE6FFE1CFD9FF060EC4
:10037000E126D9CFE9FFDACFEAFF500EEE6E4F0E3D
:10038000EE6E530EEE6E540EEE6E200EEE6EEE6AB4
:100390000F010F6B000EE66E030EE66EECEC17F02D
:1003A000E552E552F3CFABF1F4CFACF1530EE66E6C
:1003B000010EE66EECEC17F0E552E552F3CFADF12D
:1003C000F4CFAEF1910EE66E010EE66EECEC17F096
:1003D000E552E552F3CFAFF1F4CFB0F17E0EE66E09
:1003E000010EE66EECEC17F0E552E552F3CFB1F1F9
:1003F000F4CFB2F10101AD51AF25166EAE51B0216F
:10040000176E1650B125146E1750B221156E145088
:10041000AB25B36F1550AC21B46F9A0EB327000E05
:10042000B423B3C1E6FFB4C1E6FF620E146E2C0E16
:10043000156E166A14C0E6FF15C0E6FF16C0E6FF8B
:100440000F0EE66E0F0EE66E42EC18F0176E070EFA
:10045000E15E175055D8010EE66E0F0EE66E0F0ED8
:10046000E66E14EC15F0E552E552E552C6DED9DE33
:10047000040EE66EA8EC16F0E552010EE66ED9CF3A
:10048000E6FFDACFE6FF14EC15F0E552E552E5524F
:10049000010EE66E530EE66E010EE66E14EC15F0DC
:1004A000E552E552E552010EE66E910EE66E010E42
:1004B000E66E14EC15F0E552E552E552010EE66EDB
:1004C000000EE66E030EE66E14EC15F0E552E552F2
:1004D000E552060EE15C02E2E16AE552E16EE552A8
:1004E000E7CFD9FF1200B1DE46DEE7DE44DE65DE8F
:1004F00042DE09DF40DE61DE12DF7FDE11EF01F058
:10050000D9CFE6FFE1CFD9FF0C0EE126D9CFE9FF25
:10051000DACFEAFF410EEE6E540EEE6E2B0EEE6E4B
:10052000430EEE6E490EEE6E500EEE6E530EEE6EF4
:10053000450EEE6E4E0EEE6E440EEE6E3D0EEE6EFF
:10054000EE6A010EE66ED9CFE6FFDACFE6FF14ECD5
:1005500015F0E552E552E5520C0EE15C02E2E16A6B
:10056000E552E16EE552E7CFD9FF1200D9CFE6FFA1
:10057000E1CFD9FF120EE126D9CFE9FFDACFEAFFAA
:10058000200EEE6E480EEE6E540EEE6EEE6E500EB7
:10059000EE6E2F0EEE6E310EEE6E2E0EEE6E310EF4
:1005A000EE6E0D0EEE6E0A0EEE6E480EEE6E6F0ED5
:1005B000EE6E730EEE6E740EEE6E3A0EEE6E200E52
:1005C000EE6EEE6A010EE66ED9CFE6FFDACFE6FFF9
:1005D00014EC15F0E552E552E552010EE66E7E0E82
:1005E000E66E010EE66E14EC15F0E552E552E552AA
:1005F000120EE15C02E2E16AE552E16EE552E7CFFC
:10060000D9FF1200D9CFE6FFE1CFD9FF470EE1268F
:10061000D9CFE9FFDACFEAFF0D0EEE6E0A0EEE6ECD
:10062000430EEE6E6F0EEE6E6E0EEE6EEE6E650E9D
:10063000EE6E630EEE6E740EEE6E690EEE6E6F0E63
:10064000EE6E6E0EEE6E3A0EEE6E200EEE6E6B0ECF
:10065000EE6E650EEE6EEE6E700EEE6E2D0EEE6EA2
:10066000610EEE6E6C0EEE6E690EEE6E760EEE6E36
:10067000650EEE6E0D0EEE6E0A0EEE6E430EEE6E13
:100680006F0EEE6E6E0EEE6E740EEE6E650EEE6E0C
:100690006E0EEE6E740EEE6E2D0EEE6E4C0EEE6E57
:1006A000650EEE6E6E0EEE6E670EEE6E740EEE6EF4
:1006B000680EEE6E3A0EEE6E200EEE6E300EEE6EA0
:1006C0000D0EEE6E0A0EEE6E430EEE6E610EEE6EC7
:1006D000630EEE6E680EEE6E650EEE6E2D0EEE6E15
:1006E000430EEE6E6F0EEE6E6E0EEE6E740EEE6ECE
:1006F000720EEE6E6F0EEE6E6C0EEE6E3A0EEE6ECB
:10070000200EEE6E6E0EEE6E6F0EEE6E2D0EEE6E17
:10071000630EEE6E610EEE6E630EEE6E680EEE6EA2
:10072000650EEE6E0D0EEE6E0A0EEE6EEE6A010EA8
:10073000E66ED9CFE6FFDACFE6FF14EC15F0E5520E
:10074000E552E552010EE66EB50EE66E010EE66E5E
:1007500014EC15F0E552E552E552470EE15C02E279
:10076000E16AE552E16EE552E7CFD9FF1200D9CF39
:10077000E6FFE1CFD9FF030EE126730EF36E010E03
:10078000F3CFDBFF020EDB6A080EE66EA8EC16F074
:10079000E552DF6AA8DE0A0EE66EA8EC16F0E55216
:1007A000BAD8040EE66EA8EC16F0E5520AD8030E8D
:1007B000E15C02E2E16AE552E16EE552E7CFD9FF82
:1007C000120005D834D83FD8D1DE5BEF04F0D9CF82
:1007D000E6FFE1CFD9FF140EE126550E146E2C0E64
:1007E000156E166A14C0E6FF15C0E6FF16C0E6FFD8
:1007F000D9CFE6FFDACFE6FF42EC18F0176E050E10
:10080000E15E1750010EE66ED9CFE6FFDACFE6FFC4
:1008100014EC15F0E552E552E552140EE15C02E2EB
:10082000E16AE552E16EE552E7CFD9FF1200010E11
:10083000E66E400EE66E010EE66E14EC15F0E55223
:10084000E552E5521200D9CFE6FFE1CFD9FF280EDD
:10085000E1260101AA51E66EE66AA20EE66E010EDD
:10086000E66E340E146E2C0E156E166A14C0E6FF7A
:1008700015C0E6FF16C0E6FFD9CFE6FFDACFE6FFE8
:1008800042EC18F0176E090EE15E1750010EE66E8D
:10089000D9CFE6FFDACFE6FF14EC15F0E552E552CA
:1008A000E552280EE15C02E2E16AE552E16EE552B2
:1008B000E7CFD9FF1200D9CFE6FFE1CFD9FF140E61
:1008C000E126220E146E2C0E156E166A14C0E6FF79
:1008D00015C0E6FF16C0E6FFD9CFE6FFDACFE6FF88
:1008E00042EC18F0176E050EE15E1750010EE66E31
:1008F000D9CFE6FFDACFE6FF14EC15F0E552E5526A
:10090000E552140EE15C02E2E16AE552E16EE55265
:10091000E7CFD9FF1200D9CFE6FFE1CFD9FF280EEC
:10092000E126A20EE66E010EE66EECEC17F0E55243
:10093000E552F3CF27FFF4CF28FF6D0E0F012725D7
:10094000256F000E2821266F25CFE6FF26CFE6FF74
:10095000120E146E2C0E156E166A14C0E6FF15C02A
:10096000E6FF16C0E6FFD9CFE6FFDACFE6FF42EC9E
:1009700018F0176E070EE15E1750010EE66ED9CF24
:10098000E6FFDACFE6FF14EC15F0E552E552E5524A
:10099000280EE15C02E2E16AE552E16EE552E7CF42
:1009A000D9FF1200D9CFE6FFE1CFD9FF310EE12602
:1009B0002F0EDB6A300EDB6A010EE66ED2EC14F00D
:1009C000E552E76E2D0EE7CFDBFFDB507B0801E041
:1009D000F3D72F0EDB6A090EF36E2F0EDBCFF4FF79
:1009E000F350F45C10E2010EE66ED2EC14F0E55226
:1009F000E76E2D0EE7CFDBFFDB50220801E0F3D7D7
:100A00002F0EDB2AE8D72F0EDB6A010EE66ED2EC42
:100A100014F0E552E76E2E0EE7CFDBFFDB50220825
:100A200012E0D9CF14F0DACF15F02F0EDB500F0102
:100A30001424E96E000E1520EA6E2E0EDBCFEFFFB8
:100A40002F0EDB2AE2D7D9CF14F0DACF15F02F0E14
:100A5000DB500F011424E96E000E1520EA6EEF6AD8
:100A6000DFCF29FFD9CFE6FFDACFE6FFA20EE66E91
:100A7000010EE66E0101AA51E66EE66AD60E146E0C
:100A80002B0E156E166A14C0E6FF15C0E6FF16C0E1
:100A9000E6FFE7EC18F0176E090EE15E1750310E15
:100AA000E15C02E2E16AE552E16EE552E7CFD9FF8F
:100AB00012000F01006B0301006BFF0E0201985D35
:100AC00018E09851E66EE66ACB0E146E2B0E156E8A
:100AD000166A14C0E6FF15C0E6FF16C0E6FF000E5A
:100AE000E66E030EE66E42EC18F0176E070EE15E3E
:100AF0001750FF0E0201995D39E00F012F0E006FB4
:100B000002019951E66EE66AC00E146E2B0E156E48
:100B1000166A14C0E6FF15C0E6FF16C0E6FF000E19
:100B2000E66E0F0EE66E42EC18F0176E070EE15EF1
:100B30001750000EE66E0F0EE66E000EE66E030E08
:100B4000E66EBB0E146E2B0E156E166A14C0E6FF11
:100B500015C0E6FF16C0E6FF000EE66E030EE66E59
:100B600042EC18F0176E090EE15E1750FF0E0201FD
:100B70009A5D39E00F012F0E006F02019A51E66E67
:100B8000E66AB00E146E2B0E156E166A14C0E6FFE0
:100B900015C0E6FF16C0E6FF000EE66E0F0EE66E0D
:100BA00042EC18F0176E070EE15E1750000EE66E6D
:100BB0000F0EE66E000EE66E030EE66EBB0E146EB2
:100BC0002B0E156E166A14C0E6FF15C0E6FF16C0A0
:100BD000E6FF000EE66E030EE66E42EC18F0176EAE
:100BE000090EE15E1750FF0E02019B5D39E00F0117
:100BF0002F0E006F02019B51E66EE66AA50E146E81
:100C00002B0E156E166A14C0E6FF15C0E6FF16C05F
:100C1000E6FF000EE66E0F0EE66E42EC18F0176E61
:100C2000070EE15E1750000EE66E0F0EE66E000E28
:100C3000E66E030EE66EBB0E146E2B0E156E166A74
:100C400014C0E6FF15C0E6FF16C0E6FF000EE66E14
:100C5000030EE66E42EC18F0176E090EE15E1750B7
:100C6000120016EC00F083DDD2EF04F0948C948E29
:060C7000958C958E120028
:0A0C760077EC0BF0FB0EDBCFF3FF71
:100C8000DB06F35000090AE0C5EC0BF0FA0E30EC7D
:100C90000CF0F3E1151CF1E1010E01D0000EA6EFFE
:100CA0000BF077EC0BF03B0EE12402E3E168E65237
:100CB000E16E010EDB6A020EDB6AF90EDBCFF6FF96
:100CC000FA0EDBCFF7FFFB0EDBCFF8FF0800F55085
:100CD000DF6EDF5002E1CAEF0AF0250EDF5C02E0B2
:100CE000BDEF0AF0030EDB6A040EDB6A050EDB6A59
:100CF000060EDB6A070EDB6ADFEC0AF02D0EDF5C06
:100D00000CE02B0EDF5C09E0200EDF5C06E0230E1A
:100D1000DF5C03E0300EDF5C1AE1DF50300A14E0E4
:100D2000130A0FE0030A0AE00B0A05E0060AE4E1F1
:100D3000030EDB80E1D7030EDB82DED7030EDB84FC
:100D4000DBD7030EDB86D8D7030EDB88D5D72A0E78
:100D5000DF5C1BE1DBEC0AF029EC0BF010E0030E8A
:100D6000DB8008680968130EDBCF0DF0140EDBCFB3
:100D70000EF051EC19F0040E06C0DBFF03D0130E89
:100D800012EC0BF0DFEC0AF00BD0090EDB6A80EC02
:100D90000BF003E0F4EC0BF0FAD7090E12EC0BF0B9
:100DA000030EDBB0DB982E0EDF5C1BE1DFEC0AF0FC
:100DB0002A0EDF5C0BE1DBEC0AF029EC0BF003E11F
:100DC000130E64EC0BF0DFEC0AF00BD0090EDB6ABB
:100DD00080EC0BF003E0F4EC0BF0FAD7090E64ECB6
:100DE0000BF0680EDF5C07E1DFEC0AF0680EDF5CF9
:100DF0001DE1030E18D0740EDF5C17E07A0EDF5C85
:100E000014E0480EDF5C06E0540EDF5C03E05A0E8F
:100E1000DF5C02E1020E07D06C0EDF5C03E06A0EBD
:100E2000DF5C04E1010EB7EC0BF0C9DBDF506E0AAA
:100E300001E17FD31E0A01E192D1200A01E18FD1A5
:100E40003F0A01E149D11A0A01E146D10D0A01E147
:100E500043D1200A01E140D13A0A01E13DD1200A03
:100E600001E13AD1260A01E135D10D0A01E132D181
:100E70001A0A01E1D9D0200A4AE0300A1FE0460AE6
:100E80000EE0250A01E083D3D950F90FE96EFF0E79
:100E9000DA20EA6E010EEE5E000EEE5AEE5AC5EC56
:100EA0000BF0250EE66E95DB03E1151C01E169D31D
:100EB000C1EC0BF001E26BD3DB2A69D3080EDB6ACD
:100EC000040EDB50010806E2040EDB0489EC0BF093
:100ED000DB508BDB080EDB5009E0030EDB50010B0F
:100EE00005E172DB01E04DD3080EDB6A64DBEFCF76
:100EF000DFFF39EC0CF003E1151C01E142D3C1EC3A
:100F00000BF001E3DB2A60DB01E141D33AD3070EAA
:100F1000DB5002080FE105EC0CF0030ECCEC0BF0FB
:100F20000E0EEECFDBFF0F0EEECFDBFF100EEECF7F
:100F3000DBFF20D0F70EDBCF17F0F80EDBCF18F079
:100F4000020E175E000E185AF70E17C0DBFFF80EE0
:100F500018C0DBFF17C0E9FF18C0EAFFBCEC0BF0BC
:100F6000166A0E0E14C0DBFF0F0E15C0DBFF100E4D
:100F700016C0DBFF0E0EDBCFE6FF0F0EDBCFE6FF6A
:100F8000100EDBCFE6FF1DEC18F0E552E552E552FE
:100F9000130E07C0DBFF140E08C0DBFF060EDB508C
:100FA00005E0130E00EC0CF001E26ADB24EC0CF01F
:100FB00002E2130E37DBE7EC0BF006E0040E00EC68
:100FC0000CF002E2050E2EDB030EDBB005D0FCDADE
:100FD00001E0D7D2080EDB6A090EDB6A0E0EDBCF0A
:100FE000F6FF0F0EDBCFF7FF100EDBCFF8FF080088
:100FF000F550DF6EDF5014E02AEC0CF011E239EC12
:101000000CF003E1151C01E1BCD2BBDB01E3DB2AE0
:10101000090EDB2AD9500E0FE96E000ECBDBE7D7A5
:10102000D3DA01E1B4D2ADD2C6DA110EEECFDBFFD6
:10103000120EEDCFDBFF110EDBCFE6FF120EDBCF82
:10104000E6FFECEC17F0E552E552130EF3CFDBFFB1
:10105000140EF4CFDBFF060EDB5004E0130ED0DBE2
:1010600001E20EDB24EC0CF002E2130EDBDAAFDB64
:1010700005E0040EC5DB02E2050ED4DA030EDBB098
:1010800005D0A2DA01E07DD2080EDB6A090EDB6A28
:10109000110EDBCFE9FF120EDBCFEAFFEFCFDFFF50
:1010A000DF5014E0D7DB12E2E4DB03E1151C01E1C1
:1010B00068D267DB01E3DB2A090EDB2A110EDB2A8B
:1010C000DBCFE9FF120EE8E3DB2AE6D77DDA01E1A8
:1010D0005ED257D2030EDB8E070EDB0410E195DBE8
:1010E000040E5ADB0A0EEECFDBFF0B0EEECFDBFF5A
:1010F0000C0EEECFDBFF0D0EEECFDBFF6CD0070E3C
:10110000DB5003082CE1030EDBAE0DD0B2DA020E89
:1011100076DAEFCF14F0156A166A176A14AE39D072
:101120001568166835D0F70EDBCF15F0F80EDBCF5B
:1011300016F0020E155E000E165AF70E15C0DBFFF4
:10114000F80E16C0DBFF15C0E9FF16C0EAFFEFCFAF
:1011500014F00A0E14C0DBFF0B0EDB6A38D0070E4A
:10116000DB50020809E1030EDBAE04D059DB16AEFA
:1011700010D00ED055DB0DD0030EDBAE12D079DAD5
:10118000020E3DDAF9DA166A176A15AE02D0166851
:101190001768E2DA0C0E16C0DBFF0D0E17C0DBFF7E
:1011A0001AD0F70EDBCF16F0F80EDBCF17F0020ED9
:1011B000165E000E175AF70E16C0DBFFF80E17C0AA
:1011C000DBFF16C0E9FF17C0EAFFD6DAC5DA0C0E5E
:1011D000DB6A0D0EDB6A060EDB5005E1010EF36ED5
:1011E000050EF3CFDBFF150EDB6A160EDB6AD95056
:1011F000370F146E000EDA20156E390E14C0DBFFA7
:101200003A0E15C0DBFF380EDB6A080EDB6A0A0EE9
:10121000AEDADF50780A12E0200A10E0280A0CE06B
:10122000200A0AE03F0A06E00D0A02E0200A08E16F
:10123000020E05D0080E03D0080EDF26100E97DA36
:10124000030EDBBE02D0DB92DB94DB50800B24E08C
:101250008ADAD890030EEB50000A08E6000EEE5C26
:10126000000EEE58000EEE58000EEE5815E213DA9E
:101270000B680C680D680E68C0EC19F00A0E02C00D
:10128000DBFF0B0E03C0DBFF0C0E04C0DBFF0D0EFB
:1012900005C0DBFF2D0E08D0030EDBA202D02B0E03
:1012A00003D0DBA408D0200EF36E170EF3CFDBFFC4
:1012B000150EDB2A02D0170EDB6A050EDB5003E1A8
:1012C000B7D901E189D0240E146E350E156E000ECB
:1012D000166E070EDBCF17F0186A196A1A6A17C064
:1012E0000BF018C00CF019C00DF01AC00EF0D3D9D5
:1012F000F8EC19F014500224F36E15500320F46E2C
:1013000016500420F86EF4CFF7FFF3CFF6FF080075
:10131000090EF5CFDBFF580EDF5C0FE1610EF36EB7
:10132000090E7BD90AE3200E146E090EDBCFE7FF0E
:101330001450E75E090EE7CFDBFF070EDBCF14F09A
:10134000156A166A176A0FDA14C00BF015C00CF094
:1013500016C00DF017C00EF0EECF06F0EECF07F07E
:10136000EECF08F0EFCF09F0F8EC19F009C0EDFF6F
:1013700008C0EDFF07C0EDFF06C0EFFF390EDBCF61
:10138000E9FFDB063A0EDBCFEAFF01E2DB06090EDE
:10139000DBCFEFFF150EDB2A4BD995E1030EDBA661
:1013A0001DD06F0EDF5C06E1C1D918E3150EDB28F6
:1013B0005BDA14D0780EDF5C09E0580EDF5C06E0E3
:1013C000620EDF5C03E0420EDF5C08E1020EF36EAA
:1013D000160EF3CFDBFF02D0150EDB6A030EDB50D7
:1013E000100B0EE0040EDBCF14F0050EDB50D8809E
:1013F000145406E2060EDB5003E1040EDB5034DA2F
:1014000095D90AE2050EDBCFE7FF150EDB50E75E4C
:10141000050EE7CFDBFF02D0050EDB6A040EDBCF43
:1014200014F0160E45D9D880145414E2160EDBCFF2
:10143000E6FF150EDBCFE6FF040EDBCFE6FF050E61
:10144000DB50E552E75CE552D880E754E552D8809E
:10145000E7545FD9030EDB50010B0BE1080EDB50A4
:1014600008E0B2D801E08DD0080EDB50BED8080EDF
:10147000DB6A170EDB5007E088D9170EF1D903E1BC
:10148000151C01E17ED0160EDB5016E07ED9300E21
:10149000E66E9FD802E1151C74E077D9DFCFE6FF36
:1014A0007EEC19F0E552E552E552F4CF15F000015B
:1014B000F31C02E1151C65E0050EDBCF14F0160EDF
:1014C000DB50D880145409E2050EDBCFE7FF160E7F
:1014D000DB50E75E050EE7CFDBFF300EE66E050E54
:1014E000CBD94FE1390EDB2ADBCFE9FF3A0E01E31E
:1014F000DB2ADBCFEAFF090EEFCFDBFFDB500EE08C
:1015000044D9090EADD902E1151C3BE0390EDB2AA6
:10151000DBCFE9FF3A0EEDE3DB2AEBD755D831E11B
:10152000160EDBCFE6FF080EC3D8E552E7245DD8E0
:101530002ED0070EDB50030A1CE0010A14E0030A58
:1015400007E07BD9DBCFEEFF020EDBCFEDFF1FD034
:10155000F5D8196A17AE02D0186819682CD8BCD80B
:1015600019C0EEFF14D0EAD817BE186824D8B4D832
:101570000ED063D9DBCFEFFF0AD07BD905E1151C74
:1015800003E1F368F46810D0FCD801E3DB2A79D9D1
:1015900066EF06F0010EDBCF14F0020EDBCF15F084
:1015A00014C0F3FF15C0F4FF3B0EE15C02E2E16AF8
:1015B000E552E16ECBD029D9020ECCEF0BF061D908
:1015C0000800F550DF6E1200200EE66E080E3CEFAC
:1015D0000CF07EEC19F0E552E552E552F3CF14F031
:1015E000F4CF15F00001F31C1200146E156AD950E7
:1015F000010F4DD91450EE261550ED221200185E41
:10160000000E195AF70E18C0DBFFF80E19C0DBFFE9
:1016100018C0E9FF19C0EAFF1200DBCFF4FFF35056
:10162000F45C1200DB50E76E040EE7CFDBFF120024
:101630000A0EDBCF14F00B0EDBCF15F00C0EDBCF58
:1016400016F00D0EDBCF17F01450151016101710F2
:101650001200130EEECFDBFF140EEDCFDBFF130EE7
:10166000DBCF14F0140EDBCF15F00001800E151443
:101670001200F70EDBCF18F0F80EDBCF19F01200D6
:10168000050EDB50E66ED950130F01D9E552E75035
:10169000EE6EED6A12000A0EDBCF06F00B0EDBCF0A
:1016A00007F00C0EDBCF08F00D0EDBCF09F01200B7
:1016B000DBCFE6FF150EDBCFE6FF050EDB50E55274
:1016C000E724E552E7241200DB50CED8010EF36E7A
:1016D000060EF3CFDBFF1200EE50EFCFEAFFE96E0C
:1016E00016C0EEFF17C0EEFF18C0EEFF1200D9CFF4
:1016F000E6FFDACFE6FFE1CFD9FFE2CFDAFF120053
:10170000DFCFE6FFE66A54EC1AF0E552E552F350FB
:101710001200E76E080EE7CFDBFF1200EECF14F0E9
:10172000EECF15F0EFCF16F0176A1200050EDBCFE3
:1017300014F0150EDB50D88014541200010EDBCFCC
:1017400016F0020EDBCF17F0186A1200E552E5CF53
:10175000DAFFE7CFD9FF12000A0E14C0DBFF0B0E31
:1017600015C0DBFF1200D9500A0F47EF0CF0F36EE3
:10177000070EF3CFDBFF1200EECF14F0EFCF15F022
:101780001200010EDB2A020E1200FC0EDBCFE6FF78
:10179000FD0EDBCFE6FF1200145E000E155AF70EA9
:1017A00014C0DBFFF80E15C0DBFF14C0E9FF15C045
:1017B000EAFF1200DA20EA6EEF2AEECFF6FF000E03
:1017C000EF22EECFF7FFEF22EECFF8FF1200040E6C
:1017D000DBCFE6FF130EDB50E552E75C9ADFDB5010
:1017E00004DF060EDB501200090EDB500A0DF35029
:1017F000DF24D00FE76E090EE7CFDBFFDFEF0AF043
:10180000DB50F36E050E0DEF0BF0F70EDBCF14F08F
:10181000F80EDBCF15F01200DFCFE6FFE9EF0AF09C
:1018200028DF030EECDE8EEF0BF03BEC06F0E5520A
:10183000E552E552E55200091200BDDEEE50EFCF51
:10184000EAFFE96E010E1200130EDB50F36E040E78
:101850000DEF0BF0040EDB50F36E090E0DEF0BF0E5
:10186000DBCFE6FFE9EF0AF0E76E050EE7CFDBFF1F
:1018700012008BDF0CEF0CF0DBCFE6FF86DF15EFFD
:101880000CF0D950F90FE96EFF0EDAEF0BF0E96EAC
:08189000000EDA20EA6E1200DE
:08189800D9CFE6FFE1CFD9FF33
:1018A000040EE126DE6ADD6A020EDB6A030EDB6AE5
:1018B0000201986999699A699B690F013B6B956A66
:1018C000938039919392399394843A9594963A9768
:1018D0009284389592963897D56A860E146E2B0EA0
:1018E000156E166A14C0E6FF15C0E6FF16C0E6FFC7
:1018F000E7EC18F0E552E552E55291D910D8020E06
:10190000E66EA8EC16F0E552F8D7040EE15C02E2B0
:10191000E16AE552E16EE552E7CFD9FF1200960E7B
:101920000201A65D000EA759000EA859000EA95984
:1019300026E375D9750E146E2B0E156E166A14C03B
:10194000E6FF15C0E6FF16C0E6FFE80EE66E000EE5
:10195000E66ED3EC17F0176E050EE15E1750E66ADF
:10196000020EE66E40EC14F0E552E552E80EE66E2B
:10197000000EE66E33EC13F0E552E5524FD1780ECF
:10198000A65D000EA759000EA859000EA9592FE315
:10199000960EA65D000EA759000EA859000EA95973
:1019A00026E23DD9750E146E2B0E156E166A14C004
:1019B000E6FF15C0E6FF16C0E6FFE80EE66E000E75
:1019C000E66ED3EC17F0176E050EE15E1750E66A6F
:1019D000020EE66E40EC14F0E552E552E80EE66EBB
:1019E000000EE66E33EC13F0E552E55217D1640EAB
:1019F000A65D000EA759000EA859000EA9592FE3A5
:101A0000780EA65D000EA759000EA859000EA95920
:101A100026E205D9750E146E2B0E156E166A14C0CB
:101A2000E6FF15C0E6FF16C0E6FFE80EE66E000E04
:101A3000E66ED3EC17F0176E050EE15E1750E66AFE
:101A4000020EE66E40EC14F0E552E552E80EE66E4A
:101A5000000EE66E33EC13F0E552E552DFD0500E87
:101A6000A65D000EA759000EA859000EA9592FE334
:101A7000640EA65D000EA759000EA859000EA959C4
:101A800026E2CDD8640E146E2B0E156E166A14C0A5
:101A9000E6FF15C0E6FF16C0E6FFE80EE66E000E94
:101AA000E66ED3EC17F0176E050EE15E1750E66A8E
:101AB000020EE66E40EC14F0E552E552E80EE66EDA
:101AC000000EE66E33EC13F0E552E552A7D0460E59
:101AD000A65D000EA759000EA859000EA9592FE3C4
:101AE000500EA65D000EA759000EA859000EA95968
:101AF00026E295D8530E146E2B0E156E166A14C07E
:101B0000E6FF15C0E6FF16C0E6FFE80EE66E000E23
:101B1000E66ED3EC17F0176E050EE15E1750E66A1D
:101B2000020EE66E40EC14F0E552E552E80EE66E69
:101B3000000EE66E33EC13F0E552E5526FD0D8801C
:101B40003C0EA655000EA755000EA855000EA9552F
:101B500036E34F0E146E2B0E156E166A14C0E6FF98
:101B600015C0E6FF16C0E6FFE7EC18F0E552E552B7
:101B7000E55255D83E0E146E2B0E156E166A14C023
:101B8000E6FF15C0E6FF16C0E6FFE80EE66E000EA3
:101B9000E66ED3EC17F0176E050EE15E1750E66A9D
:101BA000020EE66E40EC14F0E552E552E80EE66EE9
:101BB000000EE66E33EC13F0E552E5522FD0D880DC
:101BC000370EA655000EA755000EA855000EA955B4
:101BD00025E325D83E0E146E2B0E156E166A14C022
:101BE000E6FF15C0E6FF16C0E6FFE80EE66E000E43
:101BF000E66ED3EC17F0176E050EE15E1750E66A3D
:101C0000020EE66E40EC14F0E552E552E80EE66E88
:101C1000000EE66E33EC13F0E552E55212008A82B4
:101C20000ED98A92D76AD66A81A0FED7D58E81B0A6
:101C3000FED7D59ED650E66EE66A330E146E2B0E96
:101C4000156E166A14C0E6FF15C0E6FF16C0E6FF63
:101C5000E7EC18F0176E050EE15E1750D750E66EF0
:101C6000E66A280E146E2B0E156E166A14C0E6FF77
:101C700015C0E6FF16C0E6FFE7EC18F0176E050E7C
:101C8000E15E1750D750146E156A14C015F0146A2F
:101C9000D65002011410A26F15C0A3F2A46BA56B5D
:101CA000A3AF02D0A469A569A2C2E6FFA3C2E6FF62
:101CB000A4C2E6FFA5C2E6FF0C0E146E2B0E156E35
:101CC000166A14C0E6FF15C0E6FF16C0E6FFE7EC93
:101CD00018F0176E070EE15E1750A2C206F0A3C2FD
:101CE00007F0A4C208F0A5C209F00A0E0B6E0C6A38
:101CF0000D6A0E6AC0EC19F002C006F003C007F0CE
:101D000004C008F005C009F0940E0B6E0C6A0D6A51
:101D10000E6AF8EC19F006C09EF207C09FF2020EA0
:101D2000086E096A9EC20DF09FC20EF033EC19F0E6
:101D300006C09EF207C09FF2010E02019E27000E10
:101D40009F23A2C2A6F2A3C2A7F2A4C2A8F2A5C270
:101D5000A9F2E80E0B6E030E0C6E0D6A0E6AA6C297
:101D600006F0A7C207F0A8C208F0A9C209F0C0ECAB
:101D700019F002C0A6F203C0A7F204C0A8F205C081
:101D8000A9F2FA0E0B6E160E0C6E0D6A0E6AA6C242
:101D900006F0A7C207F0A8C208F0A9C209F0F8EC43
:101DA00019F006C0A6F207C0A7F208C0A8F209C041
:101DB000A9F20201D890A637A737A837A937A6C23B
:101DC000E6FFA7C2E6FFA8C2E6FFA9C2E6FF060E2D
:101DD000146E2B0E156E166A14C0E6FF15C0E6FFD2
:101DE00016C0E6FFA50EE66E000EE66E42EC18F099
:101DF000176E090EE15E1750730EE66E000EE66E6A
:101E0000060E146E2B0E156E166A14C0E6FF15C072
:101E1000E6FF16C0E6FFD70EE66E000EE66E42EC59
:101E200018F0176E070EE15E175013D891D819D924
:101E3000A1D9020EE66EA8EC16F0E5521200F2945B
:101E4000FB0ED66ED768D58EF2B4FED7D59EF2942F
:101E500012000A0E0201A65D000EA759000EA85935
:101E6000000EA95974E2A06BA16B010EA05D000EDB
:101E7000A15915E2A50EA025E96E000EA121EA6E7A
:101E8000EF50E66E730EA025E96E000EA121EA6EFA
:101E9000E552E750EF6EA02B000EA123E6D7730E9C
:101EA000A025E96E000EA121EA6E2E0EEF6EA50EA2
:101EB000A025E96E000EA121EA6EEF50E66E010E3C
:101EC000EA6AA025E96EA151EA22730EE926000E06
:101ED000EA22E552E750EF6EA02B000EA123A50EDB
:101EE000A025E96E000EA121EA6EEF50E66E010E0C
:101EF000EA6AA025E96EA151EA22730EE926000ED6
:101F0000EA22E552E750EF6EA02B000EA123010E4E
:101F1000EA6AA025E96EA151EA22730EE926000EB5
:101F2000EA22EF6A730EE66E000EE66E010E146E84
:101F30002B0E156E166A14C0E6FF15C0E6FF16C01C
:101F4000E6FFE7EC18F0176E050EE15E1750120081
:101F50000A0E0201A65D000EA759000EA859000E38
:101F6000A95901E27DD0640EA65D000EA759000EAE
:101F7000A859000EA95974E2A06BA16B010EA05DD7
:101F8000000EA15915E2A50EA025E96E000EA121B3
:101F9000EA6EEF50E66E730EA025E96E000EA121E9
:101FA000EA6EE552E750EF6EA02B000EA123E6D7B4
:101FB000730EA025E96E000EA121EA6E2E0EEF6EC3
:101FC000A50EA025E96E000EA121EA6EEF50E66E87
:101FD000010EEA6AA025E96EA151EA22730EE926F4
:101FE000000EEA22E552E750EF6EA02B000EA1236F
:101FF000A50EA025E96E000EA121EA6EEF50E66E57
:10200000010EEA6AA025E96EA151EA22730EE926C3
:10201000000EEA22E552E750EF6EA02B000EA1233E
:10202000010EEA6AA025E96EA151EA22730EE926A3
:10203000000EEA22EF6A730EE66E000EE66EF30EF5
:10204000146E2A0E156E166A14C0E6FF15C0E6FF60
:1020500016C0E6FFE7EC18F0176E050EE15E1750AC
:102060001200640E0201A65D000EA759000EA859C9
:10207000000EA95901E27DD0E80EA65D030EA75916
:10208000000EA859000EA95974E2A06BA16B020EB4
:10209000A05D000EA15915E2A50EA025E96E000E67
:1020A000A121EA6EEF50E66E730EA025E96E000ED8
:1020B000A121EA6EE552E750EF6EA02B000EA1239E
:1020C000E6D7730EA025E96E000EA121EA6E2E0E52
:1020D000EF6EA50EA025E96E000EA121EA6EEF506D
:1020E000E66E010EEA6AA025E96EA151EA22730E9E
:1020F000E926000EEA22E552E750EF6EA02B000E13
:10210000A123A50EA025E96E000EA121EA6EEF50D5
:10211000E66E010EEA6AA025E96EA151EA22730E6D
:10212000E926000EEA22E552E750EF6EA02B000EE2
:10213000A123010EEA6AA025E96EA151EA22730EDD
:10214000E926000EEA22EF6A730EE66E000EE66ED6
:10215000F30E146E2A0E156E166A14C0E6FF15C033
:10216000E6FF16C0E6FFE7EC18F0176E050EE15E1D
:1021700017501200E80E0201A65D030EA759000ECB
:10218000A859000EA95901E28CD0A06BA16B030ED7
:10219000A05D000EA15915E2A50EA025E96E000E66
:1021A000A121EA6EEF50E66E730EA025E96E000ED7
:1021B000A121EA6EE552E750EF6EA02B000EA1239D
:1021C000E6D7730EA025E96E000EA121EA6E2E0E51
:1021D000EF6EA50EA025E96E000EA121EA6EEF506C
:1021E000E66E010EEA6AA025E96EA151EA22730E9D
:1021F000E926000EEA22E552E750EF6EA02B000E12
:10220000A123A50EA025E96E000EA121EA6EEF50D4
:10221000E66E010EEA6AA025E96EA151EA22730E6C
:10222000E926000EEA22E552E750EF6EA02B000EE1
:10223000A123A50EA025E96E000EA121EA6EEF50A4
:10224000E66E010EEA6AA025E96EA151EA22730E3C
:10225000E926000EEA22E552E750EF6EA02B000EB1
:10226000A123010EEA6AA025E96EA151EA22730EAC
:10227000E926000EEA22EF6A730EE66E000EE66EA5
:10228000E40E146E2A0E156E166A14C0E6FF15C011
:10229000E6FF16C0E6FFE7EC18F0176E050EE15EEC
:0422A00017501200C1
:0C22A400D9CFE6FFE1CFD9FFFE0EDBCF63
:1022B000E6FF3BD8E552FD0EDB50010A11E0010AB2
:1022C00001E026D0C09E020EC210C26EC2B2FED77E
:1022D000C450146E156A14C0F3FF15C0F4FF18D073
:1022E000C08E020EC210C26EC2B2FED7C450166EAD
:1022F000176A16C017F0166AC35000011624146E30
:10230000000E1720156E14C0F3FF15C0F4FF00D0A7
:10231000E552E7CFD9FF1200010EC26E800EC16EEA
:10232000280EC06EC050C06E1200D9CFE6FFE1CFBC
:10233000D9FFFE0EDB501F0A01E160D1010A01E165
:1023400056D1030A01E14CD1010A01E143D1070A48
:1023500001E136D1010A01E12BD1030A01E11FD1CC
:10236000010A01E114D10F0A01E107D1010A01E1DB
:10237000FBD0030A01E1EFD0010A01E1E4D0070A32
:1023800001E1D8D0010A01E1CED0030A01E1C3D0B6
:10239000010A01E1B9D01F0A01E1ACD0010A01E153
:1023A0009ED0030A01E192D0010A01E187D0070A19
:1023B00001E17BD0010A71E0030A67E0010A5EE0F7
:1023C0000F0A51E0010A45E0030A39E0010A2EE054
:1023D000070A21E0010A16E0030A0BE0010A01E006
:1023E00015D192800F013881010EC26EC250C26EAB
:1023F0000DD192820F013883010EC26EC2500409C2
:10240000C26E04D192840F013885010EC26EC25093
:102410000809C26EFBD092860F01080E386F010EBC
:10242000C26EC25008090409C26EF0D0928A0F0130
:10243000388B010EC26EC2501009C26EE7D0968072
:102440000F013C81010EC26EC25010090409C26E18
:10245000DDD096820F013C83010EC26EC25010097E
:102460000809C26ED3D096840F013C85010EC26E5E
:10247000C250100908090409C26EC8D00F01040E29
:10248000396FC2502009C26EC1D00F01080E396FDA
:10249000C25020090409C26EB9D00F01020E396F73
:1024A000C25020090809C26EB1D00F01100E396F59
:1024B000C250200908090409C26EA8D00F01010EFC
:1024C000396FC25020091009C26EA0D00F01200E32
:1024D000396FC250200910090409C26E97D0948444
:1024E0000F013A85010EC26EC25020091009080979
:1024F000C26E8CD00F01080E3A6FC250200910092D
:1025000008090409C26E82D00F01100E3A6F400E06
:10251000C210C26E7BD00F01200E3A6F400EC21067
:102520000409C26E73D00F01400E3A6FC210080941
:10253000C26E6CD00F01800E3A6F400EC2100809B7
:102540000409C26E63D00F01010E3B6F400EC21032
:102550001009C26E5BD00F01020E3B6F400EC2101D
:1025600010090409C26E52D00F01040E3B6F400ED9
:10257000C21010090809C26E49D00F01080E3B6F46
:10258000400EC210100908090409C26E3FD00F01A5
:10259000100E3B6F400EC2102009C26E37D00F01E3
:1025A000200E3B6F400EC21020090409C26E2ED0CF
:1025B0000F01400E3B6FC21020090809C26E26D0E1
:1025C0000F01800E3B6F400EC2102009080904095C
:1025D000C26E1CD0400EC21020091009C26E16D067
:1025E000400EC210200910090409C26E0FD0400E1F
:1025F000C210200910090809C26E08D0400EC2108E
:102600002009100908090409C26E00D0010E00D08B
:08261000E552E7CFD9FF1200EB
:08261800D9CFE6FFE1CFD9FFA5
:10262000020EE126DE6ADD6ADECF14F0DDCF15F0A2
:10263000FD0EDBCF16F0FE0EDBCF17F01450165C4C
:102640001550175806E30000DF2A010E01E3DB2ACC
:10265000EBD7020EE15C02E2E16AE552E16EE5527F
:10266000E7CFD9FF1200D9CFE6FFE1CFD9FFFD0EAA
:10267000DBCFE9FFFE0EDBCFEAFFEF500FE0FD0EF0
:10268000DBCFE9FFFE0EDBCFEAFFEFCF37FF77D8D6
:10269000FD0EDB2AFE0E01E3DB2AE9D7E552E7CF88
:1026A000D9FF1200D9CFE6FFE1CFD9FFFE0EDB50F4
:1026B00016E00F0137AF02D08C8A01D08C9A37AD6B
:1026C00002D08C8801D08C9837AB02D08C8601D098
:1026D0008C9637A902D08C8401D08C9415D00F0130
:1026E00037A702D08C8A01D08C9A37A502D08C886B
:1026F00001D08C9837A302D08C8601D08C9637A15C
:1027000002D08C8401D08C94E552E7CFD9FF12001F
:102710008C908C92010EE66EC5DFE5520000000041
:102720000000060EE66EE66A77DFE552E5528C821F
:10273000010EE66EE66A63EC16F0E552E5528C9205
:10274000000000000000000000000000E66AAADFB0
:10275000E552000000000000000000000000060E2E
:10276000E66EE66A59DFE552E5528C82010EE66EAE
:10277000E66A63EC16F0E552E5528C9212008C800A
:102780008C92010EE66E8EDFE552060EE66EE66A6C
:1027900043DFE552E55200000000000000000000A9
:1027A00000008C82010EE66EE66A63EC16F0E552DC
:1027B000E5528C92000000000000000000000000C4
:1027C000060EE66EE66A28DFE552E552060EE66E74
:1027D000E66A22DFE552E552E66A64DFE552000070
:1027E000000000008C82010EE66EE66A63EC16F0D3
:1027F000E552E5528C9212000F01200E376F8C903B
:102800008C92010EE66E4EDFE552000000000000E3
:102810000000000000008C82010EE66EE66A63ECA8
:1028200016F0E552E5528C9212000F013C913B9B51
:102830003B913B933B953B97959495969598959AAC
:1028400095909592010EE66E79EC16F0E552D4DF84
:102850000F012C0E376F5CDF0F010C0E376F58DF46
:102860000F01060E376F54DF0F01010E376F50DF77
:102870000A0EE66EE66A63EC16F0E552E5521200C7
:10288000D9CFE6FFE1CFD9FFFE0EDB50020806E10B
:10289000FD0EDB50C00F0F01376F05D0FD0EDB5072
:1028A000800F0F01376F34DF0A0EE66EE66A63ECC5
:1028B00016F0E552E552E552E7CFD9FF12000F01BD
:1028C000010E376F25DF0A0EE66EE66A63EC16F03E
:1028D000E552E55212000F01F80E376FBFEF13F00B
:1028E000D9CFE6FFE1CFD9FFFE0EDB50010A1BE096
:1028F000010A01E030D0AC6AAB6AB86A190EAF6E5B
:10290000948C948E0F013A9D3A9FAC98AC84B89603
:10291000AB8EAC9CAB9CB898B89AAC8AAB889D98AF
:102920009D9A9F8A18D0726A716A706A190E756EC4
:10293000958C958E0F013B9D3B9F7298728470968B
:10294000718E729C719C7098709A728A7188A3982B
:10295000A39AA58A00D0F28EF28CE552E7CFD9FF78
:102960001200D9CFE6FFE1CFD9FFFD0EDB50010AFF
:102970000CE0010A01E012D09E98FE0EDB50AD6E15
:10298000ACA2FED7AC929E9809D0A498FE0EDB5064
:10299000736E72A2FED77292A49800D0E552E7CF70
:1029A000D9FF1200D9CFE6FFE1CFD9FF020EE12611
:1029B000FE0EDB50010A16E0010A01E029D09E9AC2
:1029C0009EAAFED7AB50040B03E1AB50020B04E010
:1029D000AB98AE50DF6EAB88AE50DF6E9E9ADF5084
:1029E00017D016D0A49AA4AAFED77150040B03E105
:1029F0007150020B05E07198010E74CFDBFF7188F6
:102A0000010E74CFDBFFA49A7188DB5001D000D097
:102A1000146E020EE15C02E2E16AE552E16E1450CE
:102A2000E552E7CFD9FF1200D9CFE6FFE1CFD9FFBA
:102A3000FC0EDB50010A1EE0010A01E037D0FD0E5A
:102A4000DBCFE9FFFE0EDBCFEAFFEF5012E0E66AD4
:102A5000FD0EDBCFE9FFFE0EDBCFEAFFEF50E66EA7
:102A600080DFE552E552FD0EDB2AFE0E01E3DB2A94
:102A7000E6D71CD0FD0EDBCFE9FFFE0EDBCFEAFF71
:102A8000EF5013E0010EE66EFD0EDBCFE9FFFE0E08
:102A9000DBCFEAFFEF50E66E64DFE552E552FD0E54
:102AA000DB2AFE0E01E3DB2AE5D700D0E552E7CFB3
:042AB000D9FF120038
:0C2AB400574153542042494E2050524FCD
:102AC0004A454354002D2D2D2D2D2D2D2D2D2D2DF1
:102AD0002D2D2D2D2D004920616D20776F726B6992
:102AE0006E670A0044697374616E6365203D2573E7
:102AF0000A0D0044697374616E63653D25730A0DA8
:102B00000025730A0D00256C640A0D00756E54696A
:102B10006D657246696E616C56616C75653D202508
:102B20006C6420636D0A0D0054483D20256420200C
:102B3000202000544C3D20256420202020002053DC
:102B4000454E442054484520545255434B20002ABA
:102B50000A0D00202042494E2049532046554C4C36
:102B60002020200042494E2049532048414C462015
:102B700046554C4C002042494E204953204E4F545C
:102B80002046554C4C0057656C636F6D6520746F23
:102B900020417073697320536F6C7574696F6E7325
:102BA000200A0D2000266669656C64343D256400AA
:102BB000266669656C64333D2564002573257300C2
:102BC000266669656C64323D256400266669656C1D
:102BD00064313D25640043757272656E74205661E0
:102BE0006C756520696E20746865204669656C6443
:102BF00020256420206F66204368616E6E656C201E
:102C00006E756D6265722025732069732025730AC5
:102C10000D0041542B43495053454E443D25640D0E
:102C20000A000D0A0D0A4163636570743A202A2F69
:102C30002A0A0D002F6368616E6E656C732F257311
:102C40002F6669656C64732F25642F6C6173742E15
:102C50006A736F6E004745542068747470733A2F1E
:102C60002F002564004465766963652069732063DD
:102C70006F6E6E656374656420746F206E65747723
:062C80006F726B0A0D00EB
:0A2C8600D9CFE6FFE1CFD9FF040E1D
:102C9000E126DE6ADD6ADECF14F0DDCF15F0400EEE
:102CA000145C000E155805E2DF2A010E01E3DB2A51
:102CB000F2D7040EE15C02E2E16AE552E16EE55210
:102CC000E7CFD9FF1200D9CFE6FFE1CFD9FFFD0E44
:102CD000DBCF14F0DB06FE0EDBCF15F001E2DB06E6
:102CE0001450151002E0CFDFF2D7E552E7CFD9FF3D
:102CF0001200D9CFE6FFE1CFD9FFE652DF6AFE0E20
:102D0000DB50DF5C20E2640EE66EE66ADCDFE55253
:102D1000E552640EE66EE66AD6DFE552E552640ED1
:102D2000E66EE66AD0DFE552E552640EE66EE66ACC
:102D3000CADFE552E552640EE66EE66AC4DFE5528C
:102D4000E552DF2ADCD7E552E552E7CFD9FF120082
:102D5000D9CFE6FFE1CFD9FF020EE126DE6ADD6AB8
:102D6000DECF14F0DDCF15F0FE0EDB50166E176AC5
:102D70001650145C1750155809E2020EE66EB9DFC2
:102D8000E552DF2A010E01E3DB2AEAD7020EE15CFD
:102D900002E2E16AE552E16EE552E7CFD9FF1200A7
:102DA000D9CFE6FFE1CFD9FF020EE126DE6ADD6A68
:102DB000DECF14F0DDCF15F0D890155004E6050EE7
:102DC000145C000E15580EE2DECFE9FFDDCFEAFFFE
:102DD0002F0EE9260F0EEA22EF6ADF2A010E01E329
:102DE000DB2AE6D7D950FD0FE96EFF0EDA20EA6E36
:102DF000EE50ED101CE0FD0EDB06FE0E01E2DB06E0
:102E00000F012F2B0A0E2F5D11E12F6B302B0A0EB5
:102E1000305D0CE1306B312B0A0E315D07E1316B17
:102E2000322B0A0E325D02E1326B332BDBD731CF0E
:102E30002CFF30CF2DFF2FCF2EFF020EE15C02E2E0
:102E4000E16AE552E16EE552E7CFD9FF1200D9CF32
:102E5000E6FFE1CFD9FFFE0EDBCF36FF0F01346B6B
:102E6000640E365D0AE3640E365D04E3640E365D7F
:102E7000366F01D03651342BF3D7356B0A0E365DE1
:102E80000AE30A0E365D04E30A0E365D366F01D0A2
:102E90003651352BF3D7300E342735273627E552F8
:062EA000E7CFD9FF12008C
:0A2EA60002D84CEF0CF09BEC1AF080
:102EB000D60E146E2A0E156E166A14C0E6FF15C0E3
:102EC000E6FF16C0E6FFE7EC18F0E552E552E552E2
:102ED0000F01386B396B3A6B3B6B3C913C933C95E3
:102EE000C30E616EF19EE66A70EC14F0E552010EBD
:102EF000E66E70EC14F0E5528CEC11F015EC14F069
:102F0000010EE66E79EC16F0E552C50E146E2A0E2F
:102F1000156E166A14C0E6FF15C0E6FF16C0E6FF80
:102F2000D70EE66E000EE66ED3EC17F0176E050EA8
:102F3000E15E1750B40E146E2A0E156E166A14C098
:102F4000E6FF15C0E6FF16C0E6FFE80EE66E000ECF
:102F5000E66ED3EC17F0176E050EE15E1750E66AC9
:102F6000010EE66E40EC14F0E552E552D70EE66E27
:102F7000000EE66E33EC13F0E552E552E66A020EFF
:102F8000E66E40EC14F0E552E552E80EE66E000EF7
:102F9000E66E33EC13F0E552E552020EE66E79EC84
:062FA00016F0E5521200DC
:0A2FA600FB0EE3CFF6FFFC0EE3CFB5
:102FB000F7FFFD0EE3CFF8FFFE0EE3CFE9FFFF0EB4
:102FC000E3CFEAFFE9CFF3FFEACFF4FF0900F5CF43
:102FD000EFFFEE66FBD71200FE0EE3CFE9FFFF0E18
:102FE000E3CFEAFFF36AF46AEE5203E0F34AF42A0D
:102FF000FBD71200FE0EE3CFF3FFFF0EE3CFF4FF8B
:10300000FB0EE3CFF6FFFC0EE3CFF7FFFD0EE3CFA1
:10301000F8FFF3CFE9FFF4CFEAFF0900F5500CE029
:10302000F550EF5C02E1EE52F8D7EF5203E0F34ABD
:10303000F42AE6D7F36AF46A1200FF0EE3CFF8FF32
:10304000E552FF0EE3CFF7FFE552FF0EE3CFF6FFA9
:10305000E552E66AE66AE66A0900F55209E0FD0E05
:10306000E32A05E1FE0EE32A02E1FF0EE32AF4D78C
:10307000FD0EE3CF07F0FE0EE3CF08F0FF0EE3CF27
:0430800009F0120041
:0C308400D9CFE6FFDACFE6FFE1CFD9FF9D
:10309000E2CFDAFFE652E652E652E652D950F90F95
:1030A000146EFF0EDA20156E020E14C0DBFF030E45
:1030B00015C0DBFF020EDBCFE6FF030EDBCFE6FF22
:1030C000F90EDBCFE6FFFA0EDBCFE6FFFB0EDBCF20
:1030D000E6FFD950FC0FE66EFF0EDA20E66E51ECEB
:1030E00006F0146E070EE15C02E2E16AE552E16E61
:1030F0001450F3CFDEFFF4CFDDFFFC0EDBCFE9FF92
:10310000FD0EDBCFEAFFEF6ADECF14F0DDCF15F066
:1031100014C0F3FF15C0F4FF040EE15C02E2E16AA3
:10312000E552E16EE552E5CFDAFFE7CFD9FF1200B5
:10313000060EF66E000EF76E000EF86E0101090025
:10314000F550FB6F0900F550FC6F03E1FB6701D000
:103150003DD00900F550F66F0900F550F76F0900F2
:10316000F550F86F09000900F550E96E0900F550B7
:10317000EA6E090009000900F550F96F0900F550E1
:10318000FA6F09000900F6CFFDF1F7CFFEF1F8CF95
:10319000FFF1F6C1F6FFF7C1F7FFF8C1F8FF010133
:1031A000F95302E1FA5307E00900F550EE6EF90712
:1031B000F8E2FA07F9D7FDC1F6FFFEC1F7FFFFC13C
:0E31C000F8FF0101FB07000EFC5BBFD71200F9
:0231CE00D9CF57
:1031D000E6FFDACFE6FFE1CFD9FFE2CFDAFFE65232
:1031E000E652E652E652D950FB0F146EFF0EDA207B
:1031F000156E14C0DEFFDD6EDECFE6FFDDCFE6FF2D
:10320000FB0EDBCFE6FFFC0EDBCFE6FFFD0EDBCFD8
:10321000E6FFF9C0E6FFFAC0E6FF51EC06F0146ED7
:10322000070EE15C02E2E16AE552E16E1450020E23
:10323000F3CFDBFF030EF4CFDBFF020EDBCF14F086
:10324000030EDBCF15F014C0F3FF15C0F4FF040E1E
:10325000E15C02E2E16AE552E16EE552E5CFDAFFB8
:06326000E7CFD9FF1200C8
:0A32660008C012F008500D02F4CF6A
:1032700007F0F3CF06F009500E02F4CF09F0F3CFB8
:1032800008F00D02F3500726F4500822E86A0922DC
:1032900012500E02F3500726F4500822E86A092261
:1032A000000C09C013F008C012F008500D02F4CF52
:1032B00007F0F3CF06F009500E02F4CF09F0F3CF78
:1032C00008F00D02F3500726F4500822E86A09229C
:1032D00012500E02F3500726F4500822E86A092221
:1032E0000EAE77EF19F01250085E1350095A13AE64
:0C32F000000C0D50085E0E50095A000C36
:0432FC00D9CFE6FF41
:10330000DACFE6FFE1CFD9FFE2CFDAFFFB0EDBCF6A
:1033100014F0FC0EDBCF15F00001800E15141AE13D
:10332000FB0EDBCFE9FFFC0EDBCFEAFFEECFF3FFB6
:10333000EDCFF4FFEE2A000EEF22F3CFE9FFF4CF3A
:10334000EAFFFD0EDBCFEFFFEF50156AF36E15C0FD
:10335000F4FF10D0FB0EDB50FE0806E1FD0EDBCFC4
:10336000E6FF84EC1AF005D0FD0EDBCFE6FFA4ECFF
:103370001AF0E552E552E5CFDAFFE7CFD9FF1200A8
:1033800006500B02F3CF02F0F4CF03F00C02F3501F
:103390000326000EF420046E06500D02F35004269E
:1033A000000EF420056E06500E02F350052607505D
:1033B0000B02F3500326F4500422000E052207509E
:1033C0000C02F3500426F450052207500D02F3506E
:1033D000052608500B02F3500426F450052208502D
:1033E0000C02F350052609500B02F350052612007B
:1033F000056A046A036A026A200EE76ED8900636F0
:1034000007360836093602360336043605360B50C1
:10341000025C0C5003580D5004580E50055809E337
:103420000B50025E0C50035A0D50045A0E50055AB0
:08343000062AE72EE4D7120082
:08343800D9CFE6FFE1CFD9FF77
:10344000020EE126DE6ADD6ADE6ADD6AD9CFE9FFB7
:10345000DACFEAFF640ED880EE54000EED5405E397
:10346000DF2A010E01E3DB2AF1D7020EE15C02E262
:0E347000E16AE552E16EE552E7CFD9FF1200A6
:02347E00D9CFA4
:10348000E6FFE1CFD9FFFE0EDB50FB0BBA6EBC6A44
:103490009E92FE0EDBAE02D09D8201D09D92BA8438
:0834A000E552E7CFD9FF12004D
:0834A800F36AF46AFF0EE1244F
:1034B000E96EFF0EE220EA6EED6607D02F0EEF6494
:0C34C00004D03A0EEF6001D0F32A120095
:0434CC00380EF36E55
:1034D00000EE00F00F0E01D81200EA6002D0EE6A92
:0C34E000FCD7F350E9601200EE6AFCD744
:0434EC001EEE00F0E0
:1034F0002EEE00F0F86A019C98EC18F0A5EC1AF09A
:0835000053EC17F0FBD7120099
:08350800FF0EE350ACBA04D041
:10351000AF6AAB8EAC8A949CACA2FED7AD6EF36E54
:04352000F46A120037
:0C352400303132333435363738396162CB
:05353000636465660004
:0A353600D70ED36E9B6A040ED26E0E
:02354000120077
:06354200BA949D921200F4
:0235480012006F
:02354A0012006D
:04354C004F4B0000E1
:103550000000000000434F4E4E4543544544455241
:10356000524F52000000004641494C00000000004C
:103570004C494E4B4544000000756E6967707300FE
:103580007468616B75723530303736006170692E42
:103590007468696E67737065616B2E636F6D006828
:1035A000747470733A2F2F6170692E7468696E6736
:1035B000737065616B2E636F6D2F757064617465D8
:1035C0003F6170695F6B65793D006170692E746859
:1035D000696E67737065616B2E636F6D0047593755
:1035E00054434744394A30564E4659394D003437D2
:1035F00032363135000001000000000000000000FC
:1036000000436F6E74656E742D547970653A206155
:1036100070706C69636174696F6E2F782D7777773E
:103620002D666F726D2D75726C656E636F64656467
:103630000D0A0D0A4163636570743A202A2F2A0D22
:023640000A007E
:02364200FEFF89
:0C364400415053495320534F4C555449FA
:103650004F4E530A0D000000000000000000000063
:10366000000000000000000000000000000000005A
:10367000000000000000000000000000000000004A
:10368000000000000000000000000000000000003A
:10369000000000000000000000000000000000002A
:1036A000000000000000000000000000000000001A
:0B36B00000000000000000000000000F
:020000040030CA
:0100010028D6
:0100020019E4
:010003003CC0
:01000500BF3B
:010006008178
:00000001FF
